:02000000632A71
:10000800FF00030E8301B4000A08B5008A017008D6
:10001800A5007108A4007408A3007808A2007C0851
:10002800A1007D08A0000408A6008B1C24288B10C2
:1000380087010808A70008148816E6212708880001
:100048002508F0002408F1002308F4002208F8002D
:100058002108FC002008FD002608840035088A00D5
:0A006800340E8300FF0E7F0E090026
:10007200710DF80DF90D7408F8027508031C750F5F
:10008200F902F00DF10D0F30FC00710DF80DF90DB4
:100092007408701C5228F8027508031C750FF902C7
:1000A2005728F80775080318750FF907F00DF10DB9
:1000B200FC0B4628701863287408F80775080318A3
:0800C200750FF90700000800AA
:0E00CA008312031333088A00320882000800F4
:1000D800831203137408003A031D7B287508003A3D
:1000E800031D7B28FF30F0007F30F100D4288312F5
:1000F8000313FD01F901F8017108700403190034B4
:1001080071087506FA00FA1BFD09FB01F51F912815
:10011800F409F509F40A0319F50AF11F9828F009FA
:10012800F109F00A0319F10A71087504FA00FA1BBB
:10013800AD2839207B18C028FD1F0034F009F109CB
:10014800F00A0319F10AF809F909F80A0319F90A72
:100158000034F51FBC28F11BB8287108F900700895
:10016800F800F101F001A028F101F001F00A0034D3
:10017800F109F009FB0A9D28F80A0319F90A74081D
:100188007802031DA02875087902031DA028F9012B
:10019800F801F00A0319F10AF11FA0280000FF3442
:0201A80008004D
:1001AA0083120313F8010830FC00700DF80D74086F
:1001BA00F8020318E228F8070310F00DFC0BDA28FE
:0201CA0008002B
:1001CC0083120313061CE5291430AF00081488169B
:1001DC00B00117303002031865293008173CF100C4
:1001EC007108B1007108033A031D00290330AF00F8
:1001FC0008168812AE012E08323C031C5D2906112C
:10020C008615061286160A30F4002F08F000D52049
:10021C007008B600B60D3610B60D3610B60D361089
:10022C00B60D36100A30F4003108F000D5200F302E
:10023C00F0057008360487000D30FC00FB30FD0023
:10024C00FD0B2629FC0B2629000000000615861143
:10025C00061686120A30F4002F08F000D520780814
:10026C00F0007008B600B60D3610B60D3610B60D8F
:10027C003610B60D36100A30F4003108F000D520D7
:10028C007808F0000F30F0057008360487001A303B
:10029C00FC00F830FD00FD0B5129FC0B512900002E
:1002AC0006185B29870188015D29AE0A0129AF0375
:1002BC0006186329870188016529B00AEF280812FE
:1002CC0008100C30AF0088150815B0010F30300243
:1002DC000318E22930080F3CF1007108B1007108D5
:1002EC00033A031D7D290330AF0088140811AE01B9
:1002FC002E08323C031CDA290611861506128616C6
:10030C000A30F4003108F000D5207008B600B60DA4
:10031C003610B60D3610B60D3610B60D36100A3036
:10032C00F4002F08F000D5200F30F00570083604CB
:10033C0087000D30FC00FB30FD00FD0BA329FC0BEE
:10034C00A3290000000006158611061686120A3035
:10035C00F4003108F000D5207808F0007008B600E1
:10036C00B60D3610B60D3610B60D3610B60D36105D
:10037C000A30F4002F08F000D5207808F0000F3078
:10038C00F0057008360487001A30FC00F830FD00C8
:10039C00FD0BCE29FC0BCE2900000618D8298701AD
:1003AC008801DA29AE0A7E29AF030618E0298701F5
:1003BC008801E229B00A6C2988118810AF01080065
:1003CC00831203130618562A870129082A3E840033
:1003DC00000888008618422AA90A29082A3E8400A7
:1003EC0000088800A801033028020318412AAE0136
:1003FC002E08323C031C3F2A06118615061286165F
:10040C0087010D30FC00FB30FD00FD0B0B2AFC0BB3
:10041C000B2A000000000615861106168612280805
:10042C00033CF000F101031CF1030A30F40000302E
:10043C00F5006C207808F0007908F1000430F30026
:10044C007008F200730803192F2AF20D7210FF3E88
:10045C00292A0F30F0057008720487001A30FC004E
:10046C00F830FD00FD0B382AFC0B382A0000AE0AD0
:10047C00FE29A80AF929A90A2908043A0130031D02
:10048C000030F10006184C2A03104D2A0314F00119
:10049C000318F00A7108F0040319552AA901E6297A
:0204AC00080046
:1004AE0065208A110A128000840AB20A0319B30A5F
:0804BE00F003031D572A08009A
:1004C60083120313A701A801A9012130AA00313024
:1004D600AB000C30AC000E30AD00AE01AF01B00188
:1004E600B1018316860106148614870188018312DA
:1004F60006150616870188018B170B16831601133E
:080506008113E620842A862AF5
:02400E004A2F37
:00000001FF
